:020000040800F2
:10000000A810002075020008194800081B480008C5
:100010001F48000823480008274800080000000087
:100020000000000000000000000000002B48000855
:100030002D480008000000002F4800083148000843
:100040008F0200088F0200088F0200088F0200084C
:100050008F0200088F02000821360008B53500081D
:10006000BD3600086D3600088F0200088F020008B8
:100070008F0200088F0200088F0200088F0200081C
:100080008F0200088F0200088F0200088F0200080C
:100090008F0200088F0200088F0200080B3700084B
:1000A0008F020008394800088F0200088F020008FC
:1000B0008B480008A9480008C74800088F020008BC
:1000C0008F0200088F0200088F0200088F020008CC
:1000D0008F0200088F020008BD3800088F02000858
:1000E0008F0200088F0200088F02000800F002F85B
:1000F00000F0B0F80AA090E8000C82448344AAF112
:100100000107DA4501D100F0A5F8AFF2090EBAE80F
:100110000F0013F0010F18BFFB1A43F0010318473B
:10012000F4790000147A00000A444FF0000C10F833
:10013000013B13F0070408BF10F8014B1D1108BF65
:1001400010F8015B641E05D010F8016B641E01F805
:10015000016BF9D113F0080F1EBF10F8014BAD1C55
:100160000C1B09D16D1E58BF01F801CBFAD505E073
:1001700014F8016B01F8016B6D1EF9D59142D6D3CD
:10018000704700000023002400250026103A28BFF5
:1001900078C1FBD8520728BF30C148BF0B607047F9
:1001A0006E2905F08981702904F05787662907F0C8
:1001B0003880652907F03580672907F0328061298A
:1001C000AFF3008003681B0A28BF41F08001692952
:1001D00004F0C886642904F0C586752904F0C28637
:1001E0006F2905F06F84782904F02387E92905F049
:1001F0000984E42905F00684F52905F00384EF2934
:1002000005F06C84F82904F022870368DB0928BF15
:1002100041F08001632905F0FF84732905F004850E
:10022000E32905F00F85F32905F0148500207047B8
:100230001FB505F05DFC04000020002106F0E4F984
:10024000401C60600020002106F0F4F9E0601FBD52
:1002500010B510BD05F094FD1146FFF7E9FF04F05D
:10026000B5FA05F0B2FD03B4FFF7F2FF03BC04F0EA
:10027000C1FC00000948804709480047FEE7FEE747
:10028000FEE7FEE7FEE7FEE7FEE7FEE7FEE7FEE746
:1002900004480549054A064B70470000FB49000821
:1002A000ED000008A80A0020A8100020A80C0020DB
:1002B000A80C002031490143314A1160704770B5E4
:1002C000002100230F22C47804B32D4C246804F4C9
:1002D000E064C4F5E064210AC1F10403CA40447833
:1002E00004FA03F18478144021430901254C06786F
:1002F000A155047804F01F050124AC4005786D1168
:10030000AD0005F1E025C5F8004109E0047804F0EE
:100310001F050124AC401C4D0678761145F8264097
:1003200070BD1A4A0A400243154B1B1F1A607047E2
:1003300039B1134A121D12680243114B1B1D1A607A
:1003400006E00F4A121D126882430D4B1B1D1A60F6
:100350007047042808D14FF0E021096941F00401F9
:100360004FF0E022116107E04FF0E021096921F030
:1003700004014FF0E0221161704700000000FA050F
:100380000CED00E000E400E080E100E080FFFF1FF2
:1003900001684FF6FE72114001600021016041606A
:1003A0008160C1608D49884208D18C49083949680B
:1003B00041F00F01894A083A51608AE087491431B7
:1003C000884208D185490839496841F0F001834ADB
:1003D000083A51607DE081492831884208D17F493F
:1003E0000839496841F470617C4A083A516070E00C
:1003F0007A493C31884208D178490839496841F442
:100400007041764A083A516063E07449503188423D
:1004100008D172490839496841F470216F4A083A95
:10042000516056E06D496431884208D16B49083902
:10043000496841F47001694A083A516049E06749E6
:100440007831884208D165490839496841F07061BE
:10045000624A083A51603CE06149884206D1011F76
:10046000096841F00F01021F116032E05C4914314C
:10047000884208D15A49091F096841F0F001584AD9
:10048000121F116025E056492831884208D154498D
:10049000091F096841F47061514A121F116018E088
:1004A0004F493C31884208D14D49091F096841F440
:1004B00070414B4A121F11600BE04949503188428C
:1004C00007D14749091F096841F47021444A121FA6
:1004D0001160704710B50022026847F6F0739A4326
:1004E0000C6A8B6823430C6923434C6923438C6952
:1004F0002343CC6923434C6A23438C6A23431A4326
:100500000260CB6843600B6883604B68C36010BDBA
:100510000021016041608160C160016141618161D0
:10052000C161016241628162704721B1026842F09B
:100530000102026004E002684FF6FE731A40026096
:1005400070471AB103680B43036002E003688B43F2
:1005500003607047416070470146486880B2704749
:1005600001460020002201F080531BB11C4B083BC8
:100570001A6802E0194B083B1A6802EA01030BB142
:10058000012000E00020704700F0805119B11449AB
:10059000091F086002E011490839486070470146A8
:1005A0000020002201F080531BB10D4B083B1A685C
:1005B00002E00A4B083B1A6802EA01030BB1012072
:1005C00000E00020704700F0805119B10449091F74
:1005D000086002E00149083948607047080002409D
:1005E00008040240002044490860091D0860091DF4
:1005F0000860091D086041483F4914310860704790
:1006000000213D498279002A3AD00A4612680368DF
:100610009A430B461A600A1D126803689A430B1D21
:100620001A60027911440A6803681A430A60324A60
:100630000832126803689A432F4B08331A601A1D58
:10064000126803689A432C4B0C331A604279102AC3
:100650000ED11A1F126803681A43274B08331A6019
:100660001A1D126803681A43234B0C331A600DE0FD
:100670002149427911440A6803681A430A6005E077
:10068000027911440A6803689A430A60704700219E
:10069000016001710C21417100218171704716497F
:1006A000103109680143144A103211607047014645
:1006B0000020114A143212680A400AB1012000E0F9
:1006C000002070470C491431086070470146002033
:1006D0000022094B1B6803EA0102074B14331B6815
:1006E0000B4013B10AB1012000E00020704702491D
:1006F000143108607047000000040140FFFF0F0044
:1007000010B50446CC48844208D10121042000F0F1
:100710004FFD0021042000F04BFD46E0C748844215
:1007200008D10121082000F043FD0021082000F03D
:100730003FFD3AE0C248844208D10121102000F078
:1007400037FD0021102000F033FD2EE0BD4884422B
:1007500008D10121202000F02BFD0021202000F0F5
:1007600027FD22E0B848844208D10121402000F052
:100770001FFD0021402000F01BFD16E0B34884421D
:1007800008D10121802000F013FD0021802000F01D
:100790000FFD0AE0AE48844207D10121801500F028
:1007A00007FD0021A01500F003FD10BD10B50121CB
:1007B000084600F0FDFC0021012000F0F9FC10BD0E
:1007C0002DE9F041024600250026002000230024E8
:1007D000002791F803C00CF00F0591F803C00CF04E
:1007E000100CBCF1000F03D091F802C04CEA0505D3
:1007F00091F800C0BCF1000F31D0146800202BE04C
:100800004FF0010C0CFA00F3B1F800C00CEA03063B
:100810009E4220D183004FF00F0C0CFA03F7BC432B
:1008200005FA03FC4CEA040491F803C0BCF1280F5C
:1008300006D14FF0010C0CFA00FCC2F814C00AE01B
:1008400091F803C0BCF1480F05D14FF0010C0CFA30
:1008500000FCC2F810C0401C0828D1D31460B1F8C5
:1008600000C0BCF1FF0F34DD546800202EE000F121
:10087000080C4FF0010808FA0CF3B1F800C00CEABC
:1008800003069E4221D183004FF00F0C0CFA03F7B0
:10089000BC4305FA03FC4CEA040491F803C0BCF124
:1008A000280F05D100F1080C08FA0CF8C2F81480E2
:1008B00091F803C0BCF1480F07D100F1080C4FF0CC
:1008C000010808FA0CF8C2F81080401C0828CED3A2
:1008D0005460BDE8F0814FF6FF7101800221817004
:1008E0000421C17070470246002093680B400BB191
:1008F000012000E0002070470146886880B2704700
:1009000002460020D3680B400BB1012000E000201C
:1009100070470146C86880B2704701617047416105
:1009200070470AB1016100E041617047C1607047E2
:100930004FF480320A4382618161826182698269F7
:10094000704702460020434B18684FF680731840EA
:1009500040EA021008433F4B186070473E49C861A7
:100960007047F0B50A46002300240021002500F05E
:100970000046B6F1004F02D1364EF16901E0354E26
:100980007168C0F3034583B200F44016B6F5401F0A
:1009900008D121F070612F4E766826F070662D4FD9
:1009A0007E6012E000F48016B6F5801F06D10326A3
:1009B00006FA05F4A14341F0706106E0460D3601E8
:1009C00003FA06F6B14341F0706122B1460D3601DB
:1009D00003FA06F6314300F00046B6F1004F02D1AB
:1009E0001C4EF16101E01B4E7160F0BD30B500227C
:1009F0008B071C0F0F2303FA04F2164B08338C10DD
:100A000053F824309343134C08348D1044F82530A8
:100A100023468C1053F824308C07240F00FA04F47A
:100A200023430C4C08348D1044F8253030BD0A495E
:100A3000DC3108607047000000080140000C0140F4
:100A4000001001400014014000180140001C01404A
:100A500000200140000001400000204210B5044683
:100A6000F748844209D10121480500F0AEFB00217E
:100A70004FF4001000F0A9FB08E00121880500F008
:100A8000A4FB00214FF4800000F09FFB10BD2DE976
:100A9000F04385B004460D460026B1460427DFF832
:100AA000A483A6884FF6C0700640684600F0F9FAA5
:100AB000DDF80880E448B8FBF0F01FFA80F946EA58
:100AC0000906A68020884FF6FE7108402080002687
:100AD000DE49286888420CD828684000B8FBF0F04E
:100AE00087B2042F00DA04273E4309F10100208475
:100AF00027E0E8884BF6FF71884206D1286800EBB2
:100B00004000B8FBF0F087B209E0286800EBC001B4
:100B100001EB0010B8FBF0F087B247F48047C7F351
:100B20000B0008B947F0010747F4004006434FF4B3
:100B3000967009FB00F04FF47A7190FBF1F0401CC5
:100B40002084A683208840F00100208026884FF66C
:100B5000F5300640A8886989084306432680A8899D
:100B600029890843208105B0BDE8F08341F288312E
:100B70000160002181804BF6FF71C180002101815D
:100B800041814FF480418181704721B1028842F058
:100B90000102028004E002884FF6FE731A400280D0
:100BA000704721B1828842F40062828004E082882A
:100BB0004FF2FF731A408280704721B1828842F45D
:100BC0008052828004E082884EF6FF731A40828051
:100BD000704721B1028842F48072028004E00288EA
:100BE0004FF6FF631A400280704721B1028842F439
:100BF0000072028004E002884FF6FF531A40028020
:100C0000704721B1028842F48062028004E00288C9
:100C10004FF6FF331A40028070470A46002181894F
:100C20004FF60173194002F0FE03194381817047AA
:100C300021B1828942F00102828104E082894FF66B
:100C4000FE731A408281704721B1028842F040024F
:100C5000028004E002884FF6BF731A40028070479A
:100C60001AB183880B43838002E083888B4383809F
:100C70007047018270470146088AC0B2704712B1BE
:100C800041F0010102E04FF6FE7319400182704706
:100C900008B5024600200090009200980844009099
:100CA0000098008808BD21B1028842F40042028009
:100CB00003E00288C2F30E0202807047B1F5006FB4
:100CC00004D1028842F40062028004E002884FF2FC
:100CD000FF731A4002807047B1F5005F04D10288AB
:100CE00042F40052028004E002884DF6FF731A407D
:100CF0000280704721B1028842F48052028004E0F1
:100D000002884EF6FF731A4002807047B1F5006FFB
:100D100004D1028842F40062028004E002884FF2AB
:100D2000FF731A400280704721B1028842F020020E
:100D3000028004E002884FF6DF731A400280704799
:100D40000146088B0012704721B1028842F0100260
:100D5000028004E002884FF6EF731A400280704769
:100D600021B9028842F08002028004E002884FF636
:100D70007F731A4002807047B1F5804F05D0828B97
:100D80004BF6FF731A40828303E0828B42F4804269
:100D90008283704770B5024600240025002300209E
:100DA000958A138B1B0445EA030626F07F4404EA68
:100DB00001068E4201D1012000E0002070BD10B577
:100DC00001460020002300228B8A0A8B120443EA8A
:100DD000020424F07F4010BD0CB502460020002321
:100DE0000193009300920B0F019321F07F41019B2F
:100DF0001BB1009B1433009303E0090C009B1833D4
:100E00000093009B1B680B400BB1012000E0002009
:100E10000CBD002221F07F42D3438382704730B55E
:100E2000024600200023948801F0E06504EA15439F
:100E300021F07F41948A0C4054B14BB1012008E06D
:100E40000054004000127A0040420F00A0860100CA
:100E5000002030BD002221F07F42D34383827047BF
:100E60000E49086070470D49486070470B4988601B
:100E700070474AF6AA200949086070474CF6CC40F2
:100E800006490860704701460020044AD2680A40BB
:100E90000AB1012000E0002070470000003000404F
:100EA000DF48006840F00100DD49086008464068FE
:100EB000DC490840DA49486008460068DA490840D9
:100EC000D74908600846006820F48020086008467A
:100ED000406820F4FE0048604FF41F0088607047AF
:100EE000CF49096821F48031CD4A11601146096863
:100EF00021F480211160B0F5803F03D0B0F5802F40
:100F00000ED106E0C649096841F48031C44A116037
:100F100007E0C349096841F4A021C14A116000E01B
:100F200000BF00BF704710B501460022002300201B
:100F30004A11012A02D1BA4C236806E0022A02D1E2
:100F4000B74C236A01E0B64C636A01F01F0201242A
:100F500094401C400CB1012000E0002010BD38B5C9
:100F6000002000900024002500BF3120FFF7DBFFA8
:100F700005460098401C00900098B0F5A06F01D085
:100F8000002DF2D03120FFF7CEFF08B1012400E0A0
:100F90000024204638BD01460020A14A106820F0F8
:100FA000F80040EAC10010607047A049086070472F
:100FB000024600209A4B586820F47C1042EA010354
:100FC0001843974B58607047984908667047014628
:100FD0000020934A506820F0030008435060704797
:100FE0008F48406800F00C007047014600208C4A92
:100FF000506820F0F0000843506070470146002020
:10100000874A506820F4E06008435060704701460A
:101010000020834A506820F4605040EAC1005060CC
:10102000704729B17E4A527A02437D4B5A7204E0DE
:101030007B4A527A82437A4B5A7270477B49D83145
:101040000860704701460020754A506820F440400F
:101050000843506070470021714A20321170704A75
:1010600082F82010012802D004280AD104E00121CE
:101070006B4A2032117005E00521694A2032117057
:1010800000E000BF00BF70476949086070476449CD
:10109000096A0143624A1162704765494439086030
:1010A000704730B500210022002400235C4D6D689C
:1010B00005F00C0121B1042905D0082923D105E050
:1010C0005C4D056022E05B4D05601FE0544D6D688E
:1010D00005F47012524D6D6805F48034022505EB5D
:1010E00092421CB9544D554305600BE04C4D6D6860
:1010F00005F400351DB1504D5543056002E04D4DDE
:101100005543056002E04B4D056000BF00BF444DF4
:101110006D6805F0F0010909484D6B5C0568DD401C
:1011200045603F4D6D6805F4E061090A434D6B5C15
:101130004568DD4085603A4D6D6805F46051C90A27
:101140003E4D6B5C4568DD40C560354D6D6805F40E
:101150004041890B3A4D6B5CC568B5FBF3F5056101
:1011600030BD29B12E4A526902432D4B5A6104E029
:101170002B4A526982432A4B5A61704729B1284A47
:1011800092690243264B9A6104E0254A92698243A0
:10119000234B9A61704729B1214AD2690243204BFF
:1011A000DA6104E01E4AD26982431D4BDA6170475E
:1011B00029B11B4AD2680243194BDA6004E0184A8D
:1011C000D2688243164BDA60704729B1144A12691B
:1011D0000243134B1A6104E0114A12698243104B17
:1011E0001A61704712494039086070470F49C86456
:1011F00070470B49C87170470948406A40F08070D9
:1012000007494862704701460020054A92680A4033
:101210000AB1012000E00020704701498872704740
:10122000001002400000FFF8FFFFF6FE00004242FF
:101230008004424200127A0000093D0000000020B4
:101240001000002010B50446FE48844208D1012158
:10125000C014FFF7ADFF0021E014FFF7A9FFC4E0C1
:10126000B4F1804F08D101210846FFF7AEFF0021FD
:101270000120FFF7AAFFB8E0F348844208D101211A
:101280000220FFF7A2FF00210220FFF79EFFACE043
:10129000EE48844208D101210420FFF796FF002187
:1012A0000420FFF792FFA0E0E948844208D1012121
:1012B0000820FFF78AFF00210820FFF786FF94E04F
:1012C000E448844208D101211020FFF77EFF00216D
:1012D0001020FFF77AFF88E0DF48844208D101211F
:1012E0002020FFF772FF00212020FFF76EFF7CE037
:1012F000DA48844208D101214014FFF759FF002148
:101300006014FFF755FF70E0D548844209D10121F0
:10131000C804FFF74DFF00214FF40020FFF748FFFE
:1013200063E0D048844209D101210805FFF740FF5E
:1013300000214FF48010FFF73BFF56E0CA4884427B
:1013400009D101214805FFF733FF00214FF40010B8
:10135000FFF72EFF49E0C548844208D10121402013
:10136000FFF733FF00214020FFF72FFF3DE0C0488B
:10137000844208D101218020FFF727FF002180202F
:10138000FFF723FF31E0BB48844208D101218015DB
:10139000FFF71BFF0021A015FFF717FF25E0B64858
:1013A000844209D101210804FFF702FF00214FF414
:1013B0008030FFF7FDFE18E0B048844209D10121DA
:1013C0004804FFF7F5FE00214FF40030FFF7F0FE70
:1013D0000BE0AB48844208D101218804FFF7E8FE06
:1013E00000214FF48020FFF7E3FE10BD00220288A9
:1013F000944B98420ED0994B98420BD0B0F1804F4D
:1014000008D0914B984205D0904B984202D0904B17
:10141000984204D14FF68F731A404B881A438D4B74
:10142000984207D08C4B984204D04FF6FF431A40A5
:10143000CB881A4302808B8883850B880385814B78
:1014400098420BD0854B984208D08B4B984205D0E0
:101450008A4B984202D08A4B984201D10B7A03867C
:1014600001238382704770B5002400220023058C7D
:101470004FF6FE7635400584028C8388048B4FF648
:101480008F752C40B51E2C400D882C43751E2A40AC
:101490000D892A434D882A436A4DA8420BD06F4DCF
:1014A000A84208D0744DA84205D0744DA84202D07D
:1014B000734DA84213D14FF6F7752A404D892A4340
:1014C0004FF6FB752A408D882A434FF6FF652B4067
:1014D0004FF6FF552B408D892B43CD892B438380BD
:1014E0000483CD888586028470BD70B500240022F7
:1014F0000023058C4FF6EF7635400584028C8388F7
:10150000048B48F6FF752C404FF6FF452C400D88A4
:101510004FF6FF7606EA05252C434FF6DF752A4085
:101520000D8906EA05152A434D8806EA05152A4362
:10153000444DA84202D0494DA8421DD14FF67F75B7
:101540002A404D894FF6FF7606EA05152A434FF6E5
:10155000BF752A408D8806EA05152A434FF6FF35E8
:101560002B404FF2FF752B408D8906EA85052B43F2
:10157000CD8906EA85052B4383800483CD880587C2
:10158000028470BD70B5002400220023058C4FF644
:10159000FF6635400584028C8388848B4FF68F75F7
:1015A0002C404FF6FC752C400D882C434FF6FF5510
:1015B0002A400D894FF6FF7606EA05252A434D8815
:1015C00006EA05252A431F4DA84202D0234DA84212
:1015D0001DD14FF2FF752A404D894FF6FF7606EA7E
:1015E00005252A434FF6FF352A408D8806EA052552
:1015F0002A434EF6FF752B404DF6FF752B408D8923
:1016000006EA05152B43CD8906EA05152B43838091
:101610008483CD888587028470BD70B50022002345
:101620000024058C4EF6FF7635400584038C8488B3
:10163000828B48F6FF752A404FF6FF452A400D88F9
:1016400020E00000002C01400004004000080040A1
:10165000000C004000100040001400400034014025
:10166000004C01400050014000540140001800406F
:10167000001C0040002000400040014000440140A8
:10168000004801404FF6FF7606EA05252A434DF64D
:10169000FF752B400D8906EA05352B434D8806EA78
:1016A00005352B43FA4DA84202D0FA4DA84208D185
:1016B0004BF6FF752C408D894FF6FF7606EA8515AF
:1016C0002C4384808283CD88A0F84050038470BD71
:1016D000828B4FF2FF331A408283828B4FF6FF7367
:1016E00003EA01231A4382837047F0B50C4615467E
:1016F000002200210026078C4EF6FF7C07EA0C072B
:101700000784828B018C4FF6FF7707EA043640F698
:10171000FF473A404FF6FF7707EA05273A434FF66F
:10172000FF7707EA03373A43D94FB8420ED0D94F73
:10173000B8420BD0B0F1804F08D0D74FB84205D097
:10174000D64FB84202D0D64FB84206D14DF6FF77F9
:10175000394046F48057394305E047F6FF57394092
:1017600044F48057394382830184F0BD828B4FF665
:10177000F3731A408283828B0A4382837047F0B5E9
:101780000C461546002200210026078C4FF6FF6C00
:1017900007EA0C070784828B018C4FF6FF7707EA74
:1017A00004264FF60C773A404FF6FF7707EA031707
:1017B0002F433A43B64FB8420ED0B64FB8420BD083
:1017C000B0F1804F08D0B44FB84205D0B34FB84203
:1017D00002D0B34FB84206D14FF6FF57394046F416
:1017E0008077394305E04FF2FF57394044F4807762
:1017F000394382830184F0BD028B4FF2FF331A40DC
:101800000283028B4FF6FF7303EA01231A4302831C
:101810007047F0B50C461546002200210026078CC3
:101820004FF6EF7C07EA0C070784028B018C4FF61A
:10183000FF7707EA041640F6FF473A404FF6FF7776
:1018400007EA03373A434FF6FF7707EA05273A439B
:101850008F4FB8420ED08F4FB8420BD0B0F1804FAF
:1018600008D08D4FB84205D08C4FB84202D08C4F73
:10187000B84206D14FF6DF77394046F010073943BA
:1018800005E04FF65F77394044F010073943028393
:101890000184F0BD028B4FF6F3731A400283028B72
:1018A0000A4302837047F0B50C461546002200211A
:1018B000068C4FF6FE773E400684028B018C4FF675
:1018C0000C7632407E1C06EA03162E433243704EDD
:1018D000B0420ED06F4EB0420BD0B0F1804F08D066
:1018E0006D4EB04205D06D4EB04202D06C4EB0424B
:1018F00006D14FF6FD76314044F00106314305E054
:101900004FF6F576314044F00106314302830184FD
:10191000F0BD70B505460C465D4885420ED05D4869
:1019200085420BD0B5F1804F08D05B48854205D089
:101930005A48854202D05A48854200D100E000BF93
:10194000208850B92389A28861882846FFF7ABFF19
:10195000E1882846FFF79EFF25E0208804280AD169
:101960002389A28861882846FFF753FFE18828462B
:10197000FFF742FF17E0208808280AD12389A288B0
:1019800061882846FFF7FBFEE1882846FFF7EEFE58
:1019900009E02389A28861882846FFF7A6FEE1882E
:1019A0002846FFF795FE70BD2DE9F04105460C462F
:1019B00000260127608808B9022600E00026A088DA
:1019C000012801D1022700E001272088A0B923893E
:1019D000A28861882846FFF766FFE1882846FFF75E
:1019E00059FF23893A4631462846FFF712FFE1881E
:1019F0002846FFF701FF13E02389A2886188284663
:101A0000FFF707FFE1882846FFF7F6FE23893A46ED
:101A100031462846FFF747FFE1882846FFF73AFF9F
:101A2000BDE8F0810A884B881A438B881A43CB881B
:101A30001A430B891A434B891A438B891A43A0F81E
:101A4000442070474FF6FF71818000210180C180E2
:101A50004180017270470021018041808180C180F6
:101A6000018141818181C1817047002101804180D4
:101A7000012181800021C180018170470021018006
:101A800041808180C1800181418181817047000056
:101A9000002C0140003401400004004000080040D8
:101AA000000C004021B1028842F00102028004E0F3
:101AB00002884FF6FE731A400280704731B1B0F8C9
:101AC000442042F40042A0F8442005E0B0F844204D
:101AD000C2F30E02A0F8442070471AB183890B4369
:101AE000838102E083898B438381704781827047C1
:101AF00041EA0203A0F8483070471AB183890B43CA
:101B0000838102E083898B438381704701894FF68B
:101B1000F8721140018170470A46002101894FF691
:101B20008F73194011430181704730B504460D464B
:101B300029462046FFF7F0FF208940F0070020816A
:101B400030BD2DE9F04104460D4616461F46602D76
:101B500006D13B46012231462046FFF75AFE05E0FA
:101B60003B46012231462046FFF79DFE294620468E
:101B7000FFF7D2FF208940F007002081BDE8F08107
:101B800030B50C4600210189C9B24FF6FF7505EA50
:101B90000325154325432943018130BD2DE9F0413B
:101BA00005460E4617469846002443463A463146B7
:101BB0002846FFF7E5FF2C894FF6F870044044F003
:101BC00007044FF68F70044044F070042C81BDE888
:101BD000F081F0B504460D4616461F463B46324698
:101BE00029462046FFF7CCFF208940F48040208121
:101BF000F0BD0185828270470A46002101884FF6B8
:101C00008F731940114301807047F0B50C4615469B
:101C10001E460021002200230189028B038C4FF60F
:101C2000F877394021434FF6FC473A4040F201171C
:101C30003A434FF6DD773B404FF6FF7707EA06174A
:101C40002F433B43018102830384F0BD0A460021F8
:101C5000018B4FF68F7319401143018370470A4679
:101C60000021018B48F6FF7319404FF6FF7303EA1A
:101C700002231943018370470A460021818B4FF6E6
:101C80008F7319401143818370470A460021818B6D
:101C900048F6FF7319404FF6FF7303EA0223194316
:101CA0008183704721B1028842F08002028004E003
:101CB00002884FF67F731A400280704721B18288F4
:101CC00042F00402828004E082884FF6FB731A40DF
:101CD0008280704721B1828842F00802828004E04D
:101CE00082884FF6F7731A408280704721B182884C
:101CF00042F00102828004E082884FF6FE731A40AF
:101D0000828070470A460021018B4FF6F773194015
:101D10001143018370470A460021018B4FF2FF7384
:101D200019404FF6FF7303EA0223194301837047FA
:101D30000A460021818B4FF6F773194011438183C6
:101D400070470A460021818B4FF2FF7319404FF60E
:101D5000FF7303EA02231943818370470A46002177
:101D6000018B4FF6FB7319401143018370470A46FC
:101D70000021018B4FF6FF3319404FF6FF7303EA42
:101D800002231943018370470A460021818B4FF6D5
:101D9000FB7319401143818370470A460021818BF0
:101DA0004FF6FF3319404FF6FF7303EA022319433E
:101DB000818370470A460021018B4FF67F731940DB
:101DC0001143018370470A460021018BC1F30E01C4
:101DD0004FF6FF7303EA02231943018370470A4653
:101DE0000021818B4FF67F73194011438183704727
:101DF0000A460021818BC1F30E014FF6FF7303EAFF
:101E000002231943818370470A460021018C4FF653
:101E1000FD7319401143018470470A460021018C6B
:101E20004FF6F77319401143018470470A460021A9
:101E3000018C4FF6DF7319404FF6FF7303EA02136C
:101E40001943018470470A460021018C4FF67F73C5
:101E500019404FF6FF7303EA0213194301847047D8
:101E60000A460021018C4FF6FF5319404FF6FF73CD
:101E700003EA02231943018470470A460021018CBA
:101E80004FF2FF7319404FF6FF7303EA0223194321
:101E9000018470470A460021018C4DF6FF731940FA
:101EA0004FF6FF7303EA023319430184704730B5DC
:101EB000002301248C40A3B2048C9C430484048C32
:101EC00002FA01F5ADB22C43048430BD30B50023D5
:101ED00004248C40A3B2048C9C430484048C02FA36
:101EE00001F5ADB22C43048430BD70B5034600202B
:101EF00000241846183001258D40ACB21D8CA54336
:101F00001D8409B1082909D100EB6100056825F09D
:101F1000700505600568154305600EE00D1FC5F3EB
:101F20004E052844056825F4E045056005684FF630
:101F3000FF7606EA02263543056070BD21B10288AE
:101F400042F00202028004E002884FF6FD731A405C
:101F50000280704721B1028842F00402028004E04E
:101F600002884FF6FB731A400280704721B18288C5
:101F700042F08002828004E082884FF67F731A402C
:101F80008280704702884FF6F7731A4002800288F9
:101F90000A430280704782884FF68F731A4082800E
:101FA00082880A438280704702894FF6F8731A408C
:101FB000028102890A430281704702894FF67F73CA
:101FC0001A40028102890A43028170478184704766
:101FD0008185704781867047018770478187704788
:101FE000A0F84010704702884FF6FF431A40028065
:101FF00002880A43028070470146888E7047014676
:10200000088F70470146888F70470146B1F840003D
:1020100070470146888C70470146088D704702461C
:102020000020138A0B400BB1012000E00020704714
:10203000CA430282704730B50246002000230024C4
:10204000158A05EA0103958905EA010413B10CB16B
:10205000012000E0002030BDCA430282704700002A
:1020600010B50446FB48844209D101218803FFF7DB
:102070009FF800214FF48040FFF79AF832E0F648CD
:10208000844209D101214804FFF79FF800214FF451
:102090000030FFF79AF825E0F048844209D1012189
:1020A0008804FFF792F800214FF48020FFF78DF8A5
:1020B00018E0EB48844209D10121C804FFF785F8F4
:1020C00000214FF40020FFF780F80BE0E548844240
:1020D00008D101210805FFF778F800214FF480109E
:1020E000FFF773F810BD2DE9F04786B005460E46A0
:1020F0000024A24600BFA1460027B08900B100BF5E
:102100002F462C8A4CF6FF700440F08804432C8242
:10211000AC894EF6F3100440B088318908437189C8
:1021200008430443AC81AC8A4FF6FF400440B089B9
:102130000443AC8201A8FEF7B4FFC648874202D12F
:10214000DDF810A001E0DDF80CA0A88900F4004043
:1021500040B10AEBCA0000EB0A1031684900B0FB3D
:10216000F1F807E00AEBCA0000EB0A1031688900B9
:10217000B0FBF1F86420B8FBF0F004012009642101
:1021800001FB1089A88900F4004040B1322000EB27
:10219000C900B0FBF1F000F00700044308E0322072
:1021A00000EB09106421B0FBF1F000F00F000443D4
:1021B0002C8106B0BDE8F0874FF416510160002174
:1021C0008180C18001810C21418100218181704782
:1021D00010B502460020108A4FF2FF0318400B880A
:1021E0004C8823438C882343CC8823431843108294
:1021F00010BD0021018041808180C180704721B1E4
:10220000828942F40052828104E082894DF6FF7394
:102210001A4082817047F0B503460024002600254D
:10222000002040F66A17B94200D100BF1846C1F33A
:10223000421401F01F06012707FA06F5012C01D10F
:102240000C3004E0022C01D1103000E014301AB13F
:1022500007682F43076002E00768AF430760F0BDDF
:102260001AB1838A0B43838202E0838A8B43838281
:102270007047028A4FF6F0731A400282028A0A43BC
:102280000282704782894FF2FF731A4082818289ED
:102290000A438281704721B1828942F00202828121
:1022A00004E082894FF6FD731A4082817047028AEA
:1022B0004FF6DF731A400282028A0A430282704795
:1022C00021B1028A42F48042028204E0028A4BF683
:1022D000FF731A4002827047C1F308028280704780
:1022E00001468888C0F308007047818941F00101E8
:1022F00081817047028BD2B20283028B42EA0122B3
:1023000002837047028B02F47F420283028B0A43EE
:102310000283704721B1828A42F02002828204E067
:10232000828A4FF6DF731A408282704721B1828A17
:1023300042F01002828204E0828A4FF6EF731A4064
:102340008282704721B1828A42F00802828204E0D0
:10235000828A4FF6F7731A408282704721B18289D0
:1023600042F40042828103E08289C2F30E0282813C
:10237000704721B1828A42F40062828204E0828A3C
:102380004FF2FF731A4082827047828A4FF6FB73C6
:102390001A408282828A0A438282704721B1828AED
:1023A00042F00202828204E0828A4FF6FD731A40F4
:1023B0008282704702460020B1F5007F00D100BF45
:1023C00013880B400BB1012000E00020704701F49E
:1023D0000072B2F5007F00D100BFCA43028070478F
:1023E00070B50246002400230025002040F66A163E
:1023F000B14200D100BFC1F3421501F01F03012615
:1024000006FA03F3012D02D19689334006E0022D2E
:1024100002D1168A334001E0968A33400C1201261D
:1024200006FA04F41688344013B10CB1012000E020
:10243000002070BD10B50022002340F66A14A142AE
:1024400000D100BF0A1201249440A3B2DC430480EF
:1024500010BD00000038014000440040004800402A
:10246000004C00400050004008B501212020FEF73C
:1024700085FE0420ADF8000010208DF80300032035
:102480008DF8020069460D48FEF79AF904210B48C1
:10249000FEF743FA08BD10B504210848FEF73FFADD
:1024A0004FF4FA7002F077FB04210448FEF735FA86
:1024B0004FF4FA7002F06FFB10BD000000140140F1
:1024C00008B501211020FEF759FE3020ADF80000BC
:1024D00010208DF8030003208DF8020069461F4884
:1024E000FEF76EF910211D48FEF717FA20211B4850
:1024F000FEF713FA08BD10B54FF4967002F04BFBCF
:1025000010211648FEF70BFA20211448FEF707FAAF
:102510004FF4967002F03FFB10211048FEF7FDF9D2
:1025200020210E48FEF7F9F94FF4967002F033FBC4
:1025300010210A48FEF7F3F920210848FEF7EFF9C9
:102540004FF4967002F027FB10210448FEF7E5F9DE
:1025500020210248FEF7E1F910BD00000010014003
:1025600070B505460C4645F25550FEF779FC2846F5
:10257000FEF779FC2046FEF779FCFEF77AFCFEF7C1
:102580007DFC70BD10B5FEF774FC10BD08B54FF4AE
:10259000A060FDF78FFE19208DF8000000208DF857
:1025A00001008DF8020001208DF803006846FDF758
:1025B00086FE08BD08B54FF4A060FDF77BFE1C2029
:1025C0008DF8000000208DF8010001208DF8020038
:1025D0008DF803006846FDF772FE08BD08B54FF49C
:1025E000A060FDF767FE1D208DF8000000208DF82B
:1025F000010001208DF802008DF803006846FDF708
:102600005EFE08BD08B54FF4A060FDF753FE1E2026
:102610008DF8000000208DF8010002208DF80200E6
:1026200001208DF803006846FDF749FE08BD0EB590
:102630000121C802FEF7A2FDA148FEF703FE40F209
:10264000CF70ADF804004720ADF800000020ADF8D1
:102650000600ADF802008DF8080069469848FEF7BC
:10266000C5FE01219648FFF7E3FC0122114694487C
:10267000FFF733FA00219248FFF714FA0EBD00B5B8
:1026800087B001210220FEF786FD41F61F40ADF81C
:1026900014000020ADF81000ADF81600ADF81200DF
:1026A0008DF8180004A98748FEF7A0FE012185488F
:1026B000FFF7F8FA6020ADF800000120ADF8020045
:1026C0000020ADF80400ADF80C00ADF80E00ADF838
:1026D0000600ADF80800ADF80A0069467948FEF733
:1026E000C2FE08217748FFF716FB69467548FEF7DA
:1026F000FCFE08217348FFF71BFB69467148FEF793
:1027000041FF08216F48FFF713FB69466D48FEF74C
:1027100084FF08216B48FFF714FB01216948FFF78C
:10272000C1F901216748FFF7C9F941F61F41654822
:10273000FFF74EFC00216348FFF74CFC0021614885
:10274000FFF74AFC00215F48FFF748FC00215D4885
:10275000FFF746FC07B000BD00B587B0012104209B
:10276000FEF719FD41F61F40ADF814000020ADF84A
:102770001000ADF81600ADF812008DF8180004A98D
:102780005148FEF733FE01214F48FFF78BFA6020D6
:10279000ADF800000120ADF802000020ADF8040003
:1027A000ADF80C00ADF80E00ADF80600ADF808006D
:1027B000ADF80A0069464448FEF755FE0821424834
:1027C000FFF7A9FA69464048FEF78FFE08213E4808
:1027D000FFF7AEFA69463C48FEF7D4FE08213A48B6
:1027E000FFF7A6FA69463848FEF717FF0821364872
:1027F000FFF7A7FA01213448FFF754F901213248C5
:10280000FFF75CF941F61F412F48FFF7E1FB00217C
:102810002D48FFF7DFFB00212B48FFF7DDFB0021F0
:102820002948FFF7DBFB00212748FFF7D9FB07B05A
:1028300000BD0EB501210820FEF7ADFC2348FEF7D0
:1028400001FD4FF6FF70ADF804004720ADF8000021
:102850000020ADF80600ADF8020069461B48FEF7FF
:10286000C5FD01211948FFF7E3FB01221146174876
:10287000FFF733F900211548FFF714F90EBD10B525
:1028800040F271210720FFF76BFEFFF77FFEFFF795
:10289000CEFEFFF7F4FEFFF75FFF10BD10B501217C
:1028A0000748FFF7FFF801218807FFF7FBF810BD85
:1028B00010B500214FF08040FFF7F4F810BD000084
:1028C000002C01400004004000080040000C0040C3
:1028D00008B501210820FEF751FC01210420FEF774
:1028E0004DFC01210846FEF749FC40F2C330ADF82B
:1028F000000018208DF8030003208DF802006946BF
:10290000FE48FDF75DFFC020ADF8000018208DF8EF
:10291000030003208DF802006946F948FDF750FFD7
:1029200008BD002808DA4FF4E151F64A118000F59D
:10293000E151121D118008E04FF4E151F14A121DDE
:102940001180C0F5E151121F11807047002809DA8B
:102950004FF4E151EB4A121F118000F5E151121FB3
:10296000118008E04FF4E151E64A083A1180C0F5C1
:10297000E151121D11807047002808DA4FF4E1512F
:10298000E14A118000F5E151121D118008E04FF479
:10299000E151DD4A121D1180C0F5E151121F118075
:1029A0007047002809DA4FF4E151D74A0C32118000
:1029B00000F5E151121F118008E04FF4E151D24AB5
:1029C00008321180C0F5E151121D1180704700B529
:1029D0000020CE490860CE490860CE490860FFF764
:1029E000A0FF0020CC490860CC490860CC490860B1
:1029F000FFF7ACFF0020CB490860CB490860CB490A
:102A00000860FFF7B9FF0020C9490860C94908609C
:102A1000C9490860FFF7C5FF00BD2DE9FC5F04460A
:102A20000D46281BC5490860BA4800680968084473
:102A3000B849086008460068B0F52F7F03DD4FF401
:102A40002F70086007E0B348006810F52F7F02DAA6
:102A5000BB48B0490860AF48006804F019FA8246E4
:102A6000B8480168504604F05FFA8046B3480068F1
:102A700004F00EFA0090B4480168009804F054FA8B
:102A80008246AE490968A24A1268881A04F000FA20
:102A90000090AE480168009804F046FA834651461B
:102AA00004F0AAF88146414604F0A6F80746974884
:102AB000006804F0EDF93946019004F09DF80646EF
:102AC00004F0CAF99149086092480068B0F5967F11
:102AD00004DA9048006810F5967F01DCFFF777FF75
:102AE000964800688A49086088480068BDE8FC9FED
:102AF0002DE9FC5F04460D46281B9549086088486F
:102B00000068096808448649086008460068B0F50E
:102B10002F7F03DD4FF42F70086007E080480068C6
:102B200010F52F7F02DA86487D4908607C480068EE
:102B300004F0AEF9824683480168504604F0F4F987
:102B400080468348006804F0A3F900907E4801683D
:102B5000009804F0E9F982467D4909686F4A1268D5
:102B6000881A04F095F9009078480168009804F0FC
:102B7000DBF98346514604F03FF88146414604F0B4
:102B80003BF807466448006804F082F93946019032
:102B900004F032F8064604F05FF95F4908606048C7
:102BA0000068B0F5967F04DA5D48006810F5967FFE
:102BB00001DCFFF70CFF664800685849086056487A
:102BC0000068BDE8FC9F2DE9FC5F04460D46281B0C
:102BD000604908605548006809680844534908601E
:102BE00008460068B0F52F7F03DD4FF42F700860B2
:102BF00007E04E48006810F52F7F02DA50484B4935
:102C000008604A48006804F043F982464D4801686C
:102C1000504604F089F980464E48006804F038F9BF
:102C2000009049480168009804F07EF982464949BD
:102C300009683D4A1268881A04F02AF9009043484E
:102C40000168009804F070F98346514603F0D4FF00
:102C50008146414603F0D0FF07463248006804F041
:102C600017F93946019003F0C7FF064604F0F4F85F
:102C70002C4908602D480068B0F5967F04DA2B488F
:102C8000006810F5967F01DCFFF7A1FE314800686F
:102C90002549086023480068BDE8FC9F2DE9FC5FDA
:102CA00004460D46281B2C49086023480068096823
:102CB00008442149086008460068B0F52F7F03DD0D
:102CC0004FF42F70086007E01B48006810F52F7F55
:102CD00002DA1B48184908601748006804F0D8F861
:102CE000824618480168504604F01EF980461A488A
:102CF000006804F0CDF8009013482FE0000C01406C
:102D0000000801403C04004034080040240000203A
:102D1000280000202C000020340000203800002073
:102D20003C00002044000020480000204C0000200F
:102D300054000020580000205C00002020000020EB
:102D400044FDFFFF1C00002018000020140000209C
:102D50003000002040000020500000200168009852
:102D600004F0E2F88246FD490968FD4A1268881AB3
:102D700004F08EF80090FB480168009804F0D4F845
:102D80008346514603F038FF8146414603F034FF45
:102D90000746F548006804F07BF83946019003F0D7
:102DA0002BFF064604F058F8EF490860EF4800682A
:102DB000B0F5967F04DAED48006810F5967F01DCE7
:102DC000FFF705FEE5480068E5490860E648006849
:102DD000BDE8FC9F41F6BC30E5490968424291429A
:102DE00002DA4142E24A1160E1490968814201DDAB
:102DF000DF490860DF4909684242914202DA4142F4
:102E0000DC4A1160DB490968814201DDD94908606B
:102E1000D94909684242914202DA4142D64A1160D8
:102E2000D5490968814201DDD3490860D349096861
:102E30004242914202DA4142D04A1160CF490968C8
:102E4000814201DDCD490860704710B5044601207C
:102E500000F065FBCA4908602146C9480068FFF7D1
:102E6000DCFDC3490860FFF7B5FFC1480068FFF704
:102E700058FD10BD10B50446022000F050FBC149BA
:102E800008602146BF480068FFF732FEB949086074
:102E9000FFF7A0FFB7480068FFF758FD10BD10B559
:102EA0000446032000F03BFBB74908602146B648C2
:102EB0000068FFF788FEB0490860FFF78BFFAE4857
:102EC0000068FFF759FD10BD10B50446042000F05E
:102ED00026FBAE4908602146AC480068FFF7DEFEDD
:102EE000A6490860FFF776FFA4480068FFF759FD80
:102EF00010BD2DE9F04107460C4615461E463846E2
:102F0000FFF7A3FF2046FFF7B5FF2846FFF7C7FFEF
:102F10003046FFF7D9FFBDE8F08170B506460C4694
:102F200015463046FFF7FDFC2046FFF70FFD28460B
:102F3000FFF722FD1846FFF734FD70BD10B50120E4
:102F400000F0EDFA022000F0EAFA032000F0E7FAC0
:102F5000042000F0E4FA0020FFF7E3FC0020FFF774
:102F6000F5FC0020FFF708FD0020FFF71AFD10BD5B
:102F700070B504460D461646002C06DD3046FFF7B8
:102F800064FF2846FFF7A0FF07E0002C05DA28467B
:102F9000FFF75BFF3046FFF797FF70BD10B50446A3
:102FA00014F1500F01DD502C05DB062224212046B0
:102FB000FFF7DEFF4BE014F1460F01DD462C05DB89
:102FC000062224212046FFF7D3FF40E014F13C0FF6
:102FD00001DD3C2C05DB082224212046FFF7C8FF39
:102FE00035E014F1320F01DD322C05DB0A222421F9
:102FF0002046FFF7BDFF2AE014F1280F01DD282C41
:1030000005DB102224212046FFF7B2FF1FE014F158
:103010001E0F01DD1E2C05DB142224212046FFF7A4
:10302000A7FF14E014F1140F01DD142C05DB1A22A4
:1030300024212046FFF79CFF09E014F10A0F01DD6F
:103040000A2C04DB1E2224212046FFF791FF10BD2D
:1030500070B505460C46642C03DB2846FFF79EFF3F
:103060000CE0002C02DBFFF769FF07E0002C05DB1A
:103070001420FFF7EAFE1420FFF726FF70BD10B5FD
:103080000446B4F5967F06DB2420FFF7DEFE2420FD
:10309000FFF71AFF20E0C82C06DB2420FFF7D5FE3F
:1030A0002420FFF711FF17E0642C06DB2420FFF734
:1030B000CCFE2420FFF708FF0EE0002C02DBFFF718
:1030C0003DFF09E0002C07DB6FF01300FFF7BDFEAA
:1030D0006FF01300FFF7F8FE10BD70B504460D4603
:1030E0002B480068854261DA2A480068401C29495B
:1030F000086029480068401C27490860C820244906
:103100000860002D0CDA244800680A2808DD6FF0FA
:103110000400FFF79AFE6FF00400FFF7D5FE5DE0B4
:10312000192C0BDD1B480068052807DD6FF0060031
:10313000FFF78BFE0720FFF7C7FE4FE014F1190FD2
:103140002CDA14480068052828DD0720FFF77DFEEB
:103150006FF00600FFF7B8FE40E0000050000020CE
:103160005800002014000020540000205C000020C3
:103170006000002064000020680000206C00002037
:103180007000002074000020780000207C000020E7
:10319000840000208000002088000020002D1DDB1E
:1031A00000200F490860FFF7C9FE17E00A2C0CDA6F
:1031B00014F10A0F09DD00200A49086064200A4959
:1031C00008602846FFF75BFF08E02046FFF7E6FEB1
:1031D00000200449086064200349086070BD0000B5
:1031E00088000020800000208400002000B587B007
:1031F00001210846FDF7CFFF01210420FDF7BEFFA6
:103200000320ADF8000004208DF803006946FA4859
:10321000FDF7D6FA04A8FEF715FC0020ADF8100063
:103220004FF6FE70ADF814000020ADF81600ADF8B2
:10323000120004A94FF08040FEF7D8F800231A4688
:1032400003214FF08040FEF7E0FC01A8FEF70DFCE3
:103250000A20ADF80C0001A94007FEF75AFB012136
:103260008807FEF7E5FE012211469007FEF735FCC0
:1032700000214FF08040FEF7A9FE01218807FEF7EC
:1032800011FC07B000BD1FB501210846FDF776FF10
:1032900001211020FDF772FF0120ADF80C0048203D
:1032A0008DF80F0003A9D548FDF78AFA0021022006
:1032B000FDF79CFB0120019000208DF808001020F4
:1032C0008DF8090001208DF80A0001A8FDF798F992
:1032D00006208DF8000001208DF8010000208DF8F7
:1032E000020001208DF803006846FCF7E8FF1FBDCF
:1032F0001FB501210846FDF741FF01211020FDF710
:103300003DFF0220ADF80C0048208DF80F0003A906
:10331000BA48FDF755FA01210220FDF767FB0220AC
:10332000019000208DF8080010208DF80900012080
:103330008DF80A0001A8FDF763F907208DF8000059
:1033400001208DF801008DF802008DF80300684619
:10335000FCF7B5FF1FBD1FB501210846FDF70EFFA5
:1033600001211020FDF70AFF0420ADF80C004820D1
:103370008DF80F0003A9A148FDF722FA02210846A3
:10338000FDF734FB0420019000208DF80800102088
:103390008DF8090001208DF80A0001A8FDF730F929
:1033A00008208DF8000001208DF8010002208DF822
:1033B000020001208DF803006846FCF780FF1FBD66
:1033C0001FB501210846FDF7D9FE01211020FDF7A8
:1033D000D5FE0820ADF80C0048208DF80F0003A999
:1033E0008648FDF7EDF903210220FDF7FFFA0820DA
:1033F000019000208DF8080010208DF809000120B0
:103400008DF80A0001A8FDF7FBF809208DF80000EF
:1034100001208DF8010003208DF8020001208DF8B5
:1034200003006846FCF74BFF1FBD1FB5012108468E
:10343000FDF7A4FE01211020FDF7A0FE4020ADF80D
:103440000C0048208DF80F0003A96C48FDF7B8F96F
:1034500006210220FDF7CAFA4020019000208DF8D5
:10346000080010208DF8090001208DF80A0001A83D
:10347000FDF7C6F817208DF8000001208DF8010037
:1034800004208DF8020001208DF803006846FCF747
:1034900016FF1FBD1FB501210846FDF76FFE012174
:1034A0001020FDF76BFE8020ADF80C0048208DF851
:1034B0000F0003A95148FDF783F907210220FDF70A
:1034C00095FA8020019000208DF8080010208DF8DA
:1034D000090001208DF80A0001A8FDF791F81720D6
:1034E0008DF8000001208DF8010005208DF8020004
:1034F00001208DF803006846FCF7E1FE1FBD10B502
:10350000FFF774FEFFF7F4FEFFF7BDFEFFF723FFA2
:10351000FFF756FFFFF789FFFFF7BCFF10BD01461D
:10352000012906D002290BD0032910D004291ED16D
:1035300016E0334A128810B20022314B1A6018E0AC
:10354000304A128810B200222E4B1A6011E04FF060
:103550008042928C10B200224FF080439A8408E09F
:10356000294A128810B20022274B1A6001E000207D
:1035700000BF00BF70470146012906D0022908D0CC
:1035800003290AD0042911D10CE01D4A128810B277
:103590000EE01C4A128810B20AE04FF08042928C72
:1035A00010B205E0184A128810B201E0002000BFF6
:1035B00000BF7047022015490860154800680128BF
:1035C0000FD11348001F006828B90F480068401C3D
:1035D0000D49086023E00C480068401E0A49086055
:1035E0001DE00B48001F0068A0B907480068401E96
:1035F0000549086013E00000000801400010014088
:103600008C00002090000020940000201404014051
:103610000401224268480068401C674908607047FE
:103620000120664908606648006878B96448001D52
:10363000006828B960480068401C5F49086014E0D1
:103640005D480068401E5C4908600EE05C48001D53
:10365000006828B958480068401E5749086004E0CF
:1036600055480068401C5449086070470820534979
:10367000086053480C30006801280FD150480830CA
:10368000006828B94F480068401C4E49086014E0A3
:103690004C480068401E4B4908600EE0484808301E
:1036A000006828B947480068401E4649086004E0A1
:1036B00044480068401C43490860704704203F4963
:1036C00008603F480830006878B93D480C30006811
:1036D00028B93C480068401C3A49086014E0394861
:1036E0000068401E374908600EE035480C3000681D
:1036F00028B934480068401E3249086004E0314867
:103700000068401C2F490860704710B54020FCF746
:10371000CEFFF8B1402029490860294818300068D8
:1037200078B927481C30006828B927480068401E2F
:103730002549086014E024480068401C22490860BC
:103740000EE01F481C30006828B91F480068401C64
:103750001D49086004E01C480068401E1A490860C2
:103760008020FCF7A4FF00B38020144908601448AF
:103770001C30006801280FD111481830006828B9A2
:1037800011480068401E1049086014E00E480068A7
:10379000401C0D4908600EE009481830006828B93F
:1037A00009480068401C0849086004E006480068B1
:1037B000401E0549086010BD94000020140401401B
:1037C00000012242900000208C00002010B58421CE
:1037D000C94801F0AAFD0321C84800F095F910BDC1
:1037E0000FB400209DF80110491E0DF10302515C39
:1037F000232904D19DF801100B2900DB012004B01E
:10380000704730B5BFB004460025BB480078052896
:103810004DD2DFE800F00311284D4E002A2C0AD1CA
:103820000120B5490870084681788078401CB24A6A
:103830009070D01C44543DE00220AF490870084607
:1038400081788078401CAC4A9070D01C4454201D74
:103850001146487008464078802803DD84211046D0
:1038600001F063FD26E0A44881788078401CA24ADC
:103870009070D01C4454C01E407811468978401A7C
:10388000002813DC74229C491031684601F0F9FCD1
:10389000842299491EA801F0F4FC1EA80FC8FFF766
:1038A0009FFF0546002094490870887002E000BF21
:1038B00000BF00BF00BF28463FB030BD00B5BFB05D
:1038C00040F225518E48FEF78BFD60B340F2255142
:1038D0008B48FEF7AFFD8A48FEF702FD8949087064
:1038E00008460078FFF78DFFE8B102208DF87800D8
:1038F000814840788DF879009DF879207E49C91C6F
:103900000DF17A0001F078FC762221A9684601F0D9
:10391000B8FC7A481EA90EC900F055F984217648F2
:1039200001F003FD00BF3FB000BD10B504462146C5
:10393000724800F07EF910BD70B5024600200123E8
:103940000546401C555D0D700546401C555D4D708B
:103950000546401C555D8D70451C565D155C66F333
:103960001F258D80801C1BB90546401C555D8D6050
:10397000451C565D155C66F31F25861C965D05EBA0
:103980000646C51C555D06EB0565CD60001D451C52
:10399000565D155C66F31F25861C965D05EB064695
:1039A000C51C555D06EB05650D61001D002B5AD148
:1039B000451C565D155C66F31F25861C965D05EB60
:1039C0000646C51C555D06EB05654D61001D451C91
:1039D000555D165C65F31F26851C555D06EB054697
:1039E000C51C555D06EB05658D61001D451C565DCA
:1039F000155C66F31F25861C965D05EB0646C51C07
:103A0000555D06EB0565CD61001D451C565D155CD9
:103A100066F31F25861C965D05EB0646C51C555DA5
:103A200006EB05650D62001D451C565D155C66F3D1
:103A30001F25861C965D05EB0646C51C555D06EBED
:103A400005654D62001D451C565D155C66F31F251E
:103A5000861C965D05EB0646C51C555D06EB0565A7
:103A60008D62001D09E0012B07D1451C565D155CD8
:103A700066F31F258D60CD62801C451C565D155C6C
:103A800066F31F25861C965D05EB0646C51C555D35
:103A900006EB05640C63001D451C565D155C66F362
:103AA0001F25861C965D05EB0646C51C555D06EB7D
:103AB00005644C63001D451C565D155C66F31F25AF
:103AC0000D87801C451C565D155C66F31F254D87D0
:103AD000801C451C565D155C66F31F258D87801C78
:103AE0000546401C555D81F83E500546401C555D1D
:103AF00081F83F5070BD000010070020940700209F
:103B000000440040980000200022C0F88821C0F83E
:103B10008C21C0F89011704770B50446D4F88851D4
:103B200085A004F5C47106C901F0A7F821E0294673
:103B300087A001F0A2F805EB851014F8101086A0FC
:103B400001F09BF805EB851004EB4000417885A05F
:103B500001F093F885A001F090F805EB851004EBD7
:103B60004000811C83A001F088F883A001F085F853
:103B70006D1CD4F8900195FBF0F100FB1150D4F8C6
:103B80008C118842D3D17CA001F077F870BD01463A
:103B9000D1F88C01401CD1F8902190FBF2F302FB8C
:103BA0001300D1F88821904201D1012070470020F4
:103BB000FCE7014601F5C47005C8904201D101201F
:103BC00070470020FCE70FB410B504462046FFF70D
:103BD000DEFF18B1002010BC5DF814FB9DF80C004E
:103BE000D4F88C1101EB811104F811009DF80D003F
:103BF000D4F88C1101EB811104EB410148709DF860
:103C00000D20D4F88C1101EB811104EB4101881CCB
:103C10000DF10E0101F0F0FAD4F88C01401CD4F83B
:103C2000901190FBF1F201FB1200C4F88C0101200D
:103C3000D1E770B504460D462046FFF7BAFF08B13C
:103C4000002070BDD4F8880100EB801004EB400127
:103C50008222284601F0D0FAD4F88801401CD4F81A
:103C6000901190FBF1F201FB1200C4F88801687812
:103C7000802804DD41A001F000F80020E1E70120E8
:103C8000DFE770B588B00346002200BF0A24B3FB0B
:103C9000F4F504FB153430341546521C4C550A24F7
:103CA000B3FBF4F4231EF1D18C54104604E00C5CF9
:103CB000151A0DF80540401E0028F8DA012004E02E
:103CC0001DF80050441E0D55401C9042F8DD08B010
:103CD00070BD2DE9F04106460F46904600240FE0E6
:103CE000305D01F0D8F8C5B2392D03DDA5F13700FC
:103CF000C5B202E0A5F13000C5B23D55601C04B26A
:103D00004445EDDBBDE8F081F8B505460E461746A3
:103D100000240AE02A5D1EA1684601F0E5F806EBE2
:103D20004400BDF800100180641CBC42F2DBF8BD09
:103D30000020704770477047512D3E66726F6E7459
:103D4000203A25642C726561723A2025640A0000CD
:103D500069203A2564000000666C61673A2564209A
:103D6000000000006C656E3A256420006D736720CA
:103D70003A000000257320000A0000006572726F8F
:103D800072207175657565206D73670A000000000B
:103D900025303258000000002DE9F04706460D4658
:103DA0001446304603F074F88246D3480168504602
:103DB00003F0B7F9814602F0F3FE21F00041074617
:103DC00002F04EFCCD49086008460168CC48006806
:103DD00002F012FF07463946C948006802F07AFF30
:103DE000C8490860304603F053F88146C648016868
:103DF000484603F0A1F98046C2480168404603F0F6
:103E000093F80746C0480168384602F0F5FEBE49FF
:103E10000860284603F03CF88246BC4801685046DA
:103E200003F07FF9814602F0BBFE21F00041074616
:103E300002F016FCB649086008460168B5480068FB
:103E400002F0DAFE07463946B248006802F042FF47
:103E5000B1490860284603F01BF88146AF48016865
:103E6000484603F069F98046AB480168404603F0D4
:103E70005BF80746A9480168384602F0BDFEA7492D
:103E80000860304603F004F89B4908609E480068CB
:103E900002F0E2FF2060A148006802F0DDFF6060F0
:103EA000BDE8F0872DE9FF5F0446052514269C48F0
:103EB000006802F05FFD074600229A4B02F072FD97
:103EC000CDE90201204602F055FD07460022954B40
:103ED00002F068FDCDE90001DDE9022302F0F2FB0A
:103EE000814602F0BDFB83468D480068201A8E494A
:103EF000086008460068A04202D18948046039E0A1
:103F00000021584603F0DCF81AD287480068714255
:103F1000884203DB84480068B04209DD80480068BD
:103F20008249086082480068401C8149086021E09D
:103F30007E4804607A48046000207D49086019E0EA
:103F4000794800686942884203DB77480068A842E4
:103F500009DD734800687549086075480068401CB1
:103F60007349086006E06E480460704804600020F1
:103F70006F4908606E480068322804DB00206C49F5
:103F80000860674804606948006804B0BDE8F09FB5
:103F9000014668480068401C664A10601046006888
:103FA000052819DB644801600068644A1268801AB9
:103FB000634A106061480160104600680A2805DD08
:103FC00060480068401C5F4A106002E000205D4AC3
:103FD00010600020574A10605A480068704710B5BA
:103FE000B4B013A8FFF7A1FCD0B101A90DF14E00A8
:103FF000FFF7A2FC0498FFF755FF5349086011AA88
:10400000514805990068FFF7C7FE1298FFF7C0FFF7
:104010004E49086000204E49086001204D49086063
:104020004C480068012864D14B480068102860DBC8
:104030004A480068401C4949086000204649086019
:104040004748006800280BDD45480068401E444989
:1040500008600620FEF7F9FE2420FEF735FF13E086
:104060003F48006800280BDA3D480068401C3C4986
:1040700008602420FEF7E9FE0620FEF725FF03E096
:10408000DDE91101FFF729F83048006806280DDB4B
:1040900000202E4908601198002803DB14203049C5
:1040A000086003E06FF013002D4908602C48006899
:1040B00020B110212B48FCF732FC03E010212948E5
:1040C000FCF72BFC2548006814280EDB0020234950
:1040D000086020212348FCF722FC129802F0D8FE49
:1040E0000446119900F0BFFA03E020211D48FCF7B7
:1040F00014FC34B010BD0000B8000020C000002047
:10410000BC000020B0000020B4000020CC00002043
:10411000D4000020D0000020C4000020C8000020EF
:10412000D80000200000F03FE0000020E400002064
:10413000E8000020F4000020F0000020EC00002047
:10414000FC000020F80000200001002004010020F5
:104150009C000020A8000020AC00002010010020DE
:10416000080100200010014070B504460D4600BF54
:104170004FF40031FE48FCF72FFE0028F8D1012152
:10418000FB48FCF726FD00BFFA49F948FCF702FEA0
:104190000028F9D000227821F548FCF770FD00BF17
:1041A000F549F348FCF7F6FD0028F9D02146F04820
:1041B000FCF75FFD00BFF049891CED48FCF7EAFD04
:1041C0000028F8D02946EA48FCF753FD00BFEA4929
:1041D000891CE748FCF7DEFD0028F8D00121E448FF
:1041E000FCF703FD70BD10B5044621464020FFF7E3
:1041F000BBFF10BD10B5044621460020FFF7B4FFF9
:1042000010BD70B50646002415E004F1B001C8B237
:10421000FFF7F0FF0020FFF7EDFF1020FFF7EAFFA8
:10422000002504E03046FFF7DEFF681CC5B2802D94
:10423000F8DB601CC4B2082CE7DB70BD10B50020B1
:10424000FFF7DFFF10BD10B5642000F0A4FCAE2026
:10425000FFF7D0FF2020FFF7CDFF1020FFF7CAFFA8
:10426000B020FFF7C7FFC820FFF7C4FF0020FFF70B
:10427000C1FF1020FFF7BEFF4020FFF7BBFF8120EA
:10428000FFF7B8FFFF20FFF7B5FFA120FFF7B2FF50
:10429000A620FFF7AFFFA820FFF7ACFF3F20FFF7F6
:1042A000A9FFA420FFF7A6FFD320FFF7A3FF00205C
:1042B000FFF7A0FFD520FFF79DFFF020FFF79AFF43
:1042C000D920FFF797FF2220FFF794FFDA20FFF7AE
:1042D00091FF1220FFF78EFFDB20FFF78BFF2020DE
:1042E000FFF788FF8D20FFF785FF1420FFF782FF7F
:1042F000AF20FFF77FFF10BD00B585B00121880515
:10430000FCF749FF01210820FCF738FF4FF440601B
:10431000ADF8000003208DF802001C208DF803008A
:1043200069469648FCF74CFA9148FCF797FB002049
:10433000ADF808004BF6FF70ADF80A003020ADF87C
:104340000C004FF48060ADF80E000001ADF81000D5
:104350008B48019001218648FCF717FC01A984488D
:10436000FCF795FBFFF76FFFFF20FFF74AFFFFF712
:1043700065FF05B000BD70B504460D4605F1B001FE
:10438000C8B2FFF737FF102141EA1410FFF732FFE0
:1043900004F00F0141F00100FFF72CFF70BD10B5D4
:1043A0008D20FFF727FF1420FFF724FFAF20FFF732
:1043B00021FF10BD10B58D20FFF71CFF1020FFF767
:1043C00019FFAE20FFF716FF10BD2DE9F047064696
:1043D000894617469A464FF0000800240025BAF196
:1043E000010F03D0BAF1020F5ED125E020E0785D25
:1043F000203800F0FF087E2E04DD002609F10100C0
:1044000000F0FF0949463046FFF7B5FF002409E0F8
:1044100008EB48015B4A02EB4101085DFFF7E3FE50
:10442000601CC4B2062CF3DBB01DC6B2681CC5B25A
:10443000785D0028DBD137E032E0785D203800F08D
:10444000FF08782E04DD002609F1010000F0FF09C5
:1044500049463046FFF78FFF002407E004EB0811C0
:10446000494A505CFFF7BFFE601CC4B2082CF5DB64
:1044700009F10100C1B23046FFF77DFF002408E0DA
:1044800004EB08110831404A505CFFF7ACFE601C99
:10449000C4B2082CF4DB06F10800C6B2681CC5B231
:1044A000785D0028C9D100BF00BFBDE8F0872DE9C5
:1044B000F04180460E46174600247D0131464046B5
:1044C000FFF759FF00BF06E03049485DFFF78BFE5C
:1044D0006D1C601CC4B2102CF6DB701CC1B24046CF
:1044E000FFF749FF002406E02849485DFFF77BFEFF
:1044F0006D1C601CC4B2102CF6DBBDE8F0812DE908
:10450000F05F06460F4690461C46DDF828A04FF0A7
:10451000000BE11704EB5171C910A4EBC10131B9D3
:104520002046E11704EB5171C1F3C70506E02046B0
:10453000E11704EB5171C910491CCDB23D4614E09E
:1045400029463046FFF717FFB1460AE059460BF1FE
:10455000010B1AF80100FFF746FE09F1010000F017
:10456000FF09C145F2DB681CC5B2A542E8DB0FE0DC
:10457000005800400100030082000700000C0140C9
:10458000801A0600267200084E74000814010020EC
:10459000BDE8F09F10B50446012C04D0022C1DD0BC
:1045A000032C5DD131E0FFF749FE002203211320E7
:1045B000FFF77DFF012203212D20FFF778FF022264
:1045C00003214720FFF773FF032211466120FFF705
:1045D0006EFF4FF4FA6000F0DEFA42E0FFF72EFEC5
:1045E000082200210B20FFF762FF09220021292069
:1045F000FFF75DFF0A2200214B20FFF758FF0B2237
:1046000000216920FFF753FF2BE006220321102031
:10461000FFF74DFF072203212020FFF748FF022369
:1046200059A203213020FFF7D0FE0D22032158208C
:10463000FFF73DFF042206211020FFF738FF052277
:1046400006212020FFF733FF02234FA2062130204E
:10465000FFF7BBFE0E2206215820FFF728FF00E0DF
:1046600000BF00BF10BD2DE9F04105460C460021FA
:10467000284602F025FD3FD82021444800F033FEB3
:104680004349284602F01CFC0ED84249284602F055
:1046900021FB804602F084FA064632460B463EA1D4
:1046A0003A4800F021FC21E03D49284602F008FC90
:1046B0000ED83849284602F00DFB804602F070FA09
:1046C000064632460B4637A1304800F00DFC0DE09F
:1046D0003049284602F0FEFA804602F061FA0646AA
:1046E00032460B462CA1294800F0FEFB0223274A44
:1046F00003213820FFF769FE002C21DB202123480D
:1047000000F0F1FD14F1090F05DB224627A11F4837
:1047100000F0EAFB0DE014F1630F05DB224623A154
:104720001A4800F0E1FB04E0224622A1174800F0FD
:10473000DBFB0223154A06213820FFF746FE20E066
:104740002021124800F0CFFD14F1090F05DB2246AD
:104750001AA10E4800F0C8FB0DE014F1630F05DB51
:10476000224618A1094800F0BFFB04E0224616A12A
:10477000064800F0B9FB0223044A06213820FFF75F
:1047800024FEBDE8F08100003A0000002809002066
:1047900000C079440000C84225302E326600000077
:1047A000003C1C4625302E31660000002025642088
:1047B000000000003A20256400000000256420204D
:1047C00000000000256420002564000000F096F938
:1047D000FDF776FEFDF748FEFDF75DFEFDF78BFE6B
:1047E000FEF74DF8FEF75AF8FEF7F0FF00F036FB43
:1047F000FEF76EF8FEF783FEFFF77EFD0120FFF760
:10480000C9FE0220FFF7C6FE0320FFF7C3FE01E04A
:10481000FFF7E5FBFCE70000704700BFFEE700BFC5
:10482000FEE700BFFEE700BFFEE770477047704736
:1048300010B500F0CBF910BD10B501212F48FDF7E0
:10484000FAFB08B301212D48FDF706FC01212B4896
:10485000FDF7EEFBFDF796FE29480068401C28494D
:10486000086028480068401C264908602448006801
:10487000C82809D1FEF762FB0020214908602249BF
:10488000086014202149086010BD10B50121880777
:10489000FDF7D1FB38B101218807FDF7DDFB0121D0
:1048A0008807FDF7C5FB10BD10B501211848FDF7BD
:1048B000C2FB38B101211648FDF7CEFB0121144897
:1048C000FDF7B6FB10BD10B501211248FDF7B3FB93
:1048D00018B101210F48FDF7BFFB10BD10B5012134
:1048E0000D48FDF7A8FB38B101210B48FDF7B4FBDB
:1048F00001218807FDF79CFB10BD0000002C014042
:104900009C000020AC000020A8000020A400002093
:104910000004004000080040000C00400CB50020DE
:10492000019000906C48006840F480306A4908604B
:1049300000BF6948006800F4003000900198401CF6
:104940000190009818B90198B0F5A06FF1D16248B4
:10495000006800F4003010B10120009001E0002058
:1049600000900098012843D15C48006840F0100096
:104970005A4908600846006820F0030008600846AD
:10498000006840F00200086053484068524948609F
:104990000846406848600846406840F480604860C7
:1049A0000846406820F47C1048600846406840F49F
:1049B000E81048600846006840F08070086000BF5A
:1049C0004548006800F000700028F9D0424840686F
:1049D00020F00300404948600846406840F002006B
:1049E000486000BF3C48406800F00C000828F9D13E
:1049F0000CBD10B5FFF792FF10BD10B5364800682A
:104A000040F00100344908600846406834490840D5
:104A10003149486008460068324908402E4908601C
:104A20000846006820F4802008600846406820F4AA
:104A3000FE0048604FF41F008860FFF7DAFF4FF078
:104A400000602949086010BD10B500210020002237
:104A5000214B5B6803F00C0121B1042906D0082921
:104A600028D107E0214B224C236027E01F4B204C2C
:104A7000236023E0184B5B6803F47010164B5B68EF
:104A800003F48032022303EB904022B9194B4343D5
:104A9000174C23600DE0104B5B6803F4003323B127
:104AA000144B4343124C236003E0104B4343104C20
:104AB000236003E00D4B0E4C236000BF00BF064B8C
:104AC0005B68C3F303130C4CE15C094B1B68CB40E0
:104AD000074C236010BD000000100240002002407F
:104AE0000000FFF8FFFFF6FE08ED00E000127A007C
:104AF000F406002000093D00F806002030B53848D3
:104B00000068384AB0FBF2F1B1F1807F01D3012097
:104B10001DE021F07F40401E4FF0E0225061501711
:104B20000F22002807DA13071D0E2F4B00F00F0489
:104B3000241F1D5503E013071C0E2C4B1C5400BFF3
:104B400000204FF0E022906107201061002008B1A2
:104B500000BFFEE74FF0E020006920F001004FF0B9
:104B6000E021086130BD224908604FF0E021096969
:104B700041F001014FF0E022116100BF1C490968BA
:104B80000029FBD14FF0E021096921F001014FF02C
:104B9000E022116170474FF47A714143144A116069
:104BA0004FF0E021096941F001014FF0E02211616D
:104BB00000BF0F4909680029FBD14FF0E0210969C6
:104BC00021F001014FF0E0221161704708480068B0
:104BD00020B107480068401E054908607047000082
:104BE000F406002040420F0018ED00E000E400E071
:104BF0000C07002000BF704770B504460D46A04862
:104C00000088E1B29E48FDF767FB00BF40219C4849
:104C1000FDF7D0FB0028F9D0204670BD10B5044642
:104C200000BF20219648FDF7C5FB0028F9D0944825
:104C3000FDF756FB10BD70B505460C4605B10CB925
:104C4000002070BD00218F48FBF76FFC21468D4886
:104C5000FBF780FC01218B48FBF767FC09E04FF470
:104C60000050FBF79CFC20B14FF40050FBF78CFC8C
:104C700000E0F4E700BF2046E3E70FB438B505A82D
:104C800000904FF480718048009B049A00F012F964
:104C9000044600200090A1B27B48FFF7CCFF38BC4F
:104CA0005DF814FB70B58CB006460C461546012124
:104CB0000846FCF756FA3046FBF76AFB019402956A
:104CC00010200390000104900020059080200690A1
:104CD00000200790089009904FF400500A9000209F
:104CE0000B9001A93046FBF7F5FB012280216448B7
:104CF000FDF7B6FA012202216248FBF722FC0CB054
:104D000070BD10B5002240F226615D48FDF783FAC0
:104D1000002240F225515A48FDF77DFA012240F267
:104D200024415748FDF777FA574A5549091D554818
:104D3000FFF7B8FF10BD704708B54FF4A060FBF750
:104D4000B9FA26208DF8000001208DF8010002201C
:104D50008DF8020001208DF803006846FBF7AFFADA
:104D600008BD1FB5044600940020ADF80400ADF85E
:104D70000600ADF80800ADF80C000C20ADF80A00F4
:104D800069463F48FDF7AFF9012240F225513C4802
:104D9000FDF741FA01213A48FDF731FA1FBD1FB571
:104DA000044600940020ADF80400ADF80600ADF80C
:104DB0000800ADF80C000C20ADF80A006946334835
:104DC000FDF791F9012240F225513048FDF723FA11
:104DD00001212E48FDF713FA1FBD08B5012144F249
:104DE0000400FCF7CBF94FF40070ADF8000003208D
:104DF0008DF8020018208DF8030069462448FBF75F
:104E0000DFFC4FF48060ADF8000004208DF8030053
:104E100069461F48FBF7D4FC08BD08B501210420F2
:104E2000FCF7ACF901214804FCF7B5F90420ADF812
:104E3000000003208DF8020018208DF80300694659
:104E40001348FBF7BDFC0820ADF8000004208DF8E6
:104E5000030069460E48FBF7B3FC08BD10B5FFF729
:104E6000BCFF4FF4E130FFF77CFFFFF74AFFFFF78D
:104E7000D4FF4FF4E130FFF792FFFFF75DFF10BD65
:104E8000003801404400024048090020004400402E
:104E900000080140704710B5044600F071FA006840
:104EA000005D000704D5DF2C02D0A4F1200010BD66
:104EB000204610BD7CB51D4616460C00009001D062
:104EC0002044401E074B7B442A46694601903046E9
:104ED00000F019FD05461CB10020694600F026FDD2
:104EE00028467CBD6D0A00000FB41CB5084B06AA0D
:104EF0007B4469460090059800F005FD04460020BB
:104F0000694600F013FD20461CBC5DF814FB000050
:104F1000390A000070B5044685690068C10601D5EC
:104F2000302600E02026C00707D070BDD4E901215B
:104F300030469047206A401C20626D1EF6D570BD39
:104F400070B5044685690078C00707D170BDD4E903
:104F5000012120209047206A401C20626D1EF6D55A
:104F600070BD00002DE9F041064600241068752947
:104F7000314616A510D000F00BFA002802DA4042A4
:104F800013A507E031688A0701D512A502E0490799
:104F900004D511A5012401E000F003FA00210A2242
:104FA00006F1240709E0B0FBF2FCB0FBF2F302FBD0
:104FB0001C00303078541846491C0028F3D1234691
:104FC0002A463046BDE8F04100F01DBA000000005E
:104FD0002D0000002B00000020000000F0B40D4662
:104FE0000188090502D5214C7C4402E01F4C7C4419
:104FF0000E34002100F1240608E002F00F07120928
:10500000E75D42EA03721B097754491C52EA030721
:10501000F3D102780023120704D5702D06D009B110
:10502000022311342246F0BC00F0EDB90123103404
:10503000F8E770B504460D462146106800F0B1F956
:10504000024629462046BDE870400023C6E7D21D2F
:1050500022F00703D3E90023C0E70368126843F096
:10506000200303600823C3610023B7E7522A00002E
:105070002DE9F05F894604464FF0000ADFF874B16D
:10508000FB44C0F820A02046E1688847002874D07F
:10509000252806D0D4E901219047206A401C2062CF
:1050A000F1E700265F462046E1688847202805464C
:1050B00007DB312D05D2781910F8200C08B1064312
:1050C000F1E7B00701D526F00406C4F81CA00027BC
:1050D000C4F818A02A2D09D0284601F08EFA38B35A
:1050E00004EB8708303DC8F8185019E059F8041B44
:1050F000204604EB87029161E1688847012F05464D
:1051000018D1E069002820DA26F020061DE0D8F842
:10511000180000EB800005EB40003038C8F818009C
:105120002046E1688847054601F067FA0028EED17D
:10513000012F0AD02E2D08D12046E16888477F1C18
:105140000546022F46F02006C4DBA069002803DADA
:10515000404246F00106A061F00701D026F010069B
:105160006C2D0BD0682D09D04C2D39D06A2D35D03F
:10517000742D35D07A2D33D016E038E0E1682F4613
:1051800020468847B842054609D16C2F26D04FF4F7
:105190008060E168064320468847054604E06C2F9E
:1051A0001AD04FF4807006430DB3A5F141001928C1
:1051B00002D8203546F400664A4629462046266035
:1051C0004E46FAF7EDFF80B101280BD0F61D26F010
:1051D000070000F1080956E74020E4E78020D8E7FF
:1051E0000020D6E706F104094DE7284652E7206A79
:1051F000BDE8F09FE2290000032A40F2308010F061
:10520000030C00F0158011F8013BBCF1020F624461
:1052100098BF11F801CB00F8013B38BF11F8013BF2
:10522000A2F1040298BF00F801CB38BF00F8013B9F
:1052300011F0030300F02580083AC0F0088051F80F
:10524000043B083A51F804CBA0E80810F5E7121D1A
:105250005CBF51F8043B40F8043BAFF30080D20739
:1052600024BF11F8013B11F801CB48BF11F8012B05
:1052700024BF00F8013B00F801CB48BF00F8012B28
:10528000704710B5203AC0F00B80B1E81850203AB2
:10529000A0E81850B1E81850A0E81850BFF4F5AFD6
:1052A0005FEA027C24BFB1E81850A0E8185044BF60
:1052B00018C918C0BDE810405FEA827C24BF51F8CD
:1052C000043B40F8043B08BF7047D20728BF31F8C1
:1052D000023B48BF11F8012B28BF20F8023B48BF12
:1052E00000F8012B70474FF000020429C0F0128033
:1052F00010F0030C00F01B80CCF1040CBCF1020F89
:1053000018BF00F8012BA8BF20F8022BA1EB0C015D
:1053100000F00DB85FEAC17C24BF00F8012B00F853
:10532000012B48BF00F8012B70474FF0000200B579
:10533000134694469646203922BFA0E80C50A0E8B8
:105340000C50B1F12001BFF4F7AF090728BFA0E866
:105350000C5048BF0CC05DF804EB890028BF40F832
:10536000042B08BF704748BF20F8022B11F0804F74
:1053700018BF00F8012B704770477047704770479F
:1053800010B500F0B5FB001D10BD00BF7D12000080
:1053900009684A0501D540B27047C905FCD500B27D
:1053A000704709684A0501D5C0B27047C905FCD5E8
:1053B00080B2704770B50C460546012A05D02878A2
:1053C000800600D5EA69002302E0012305E05B1CAA
:1053D000934202D2E05C0028F9D1A869E618C01A0D
:1053E000A861286A184428622846FFF793FD04E064
:1053F000D5E9012114F8010B9047B442F8D32846AF
:10540000FFF79EFD70BD2DE9F0470D469946924687
:10541000044600F124080168880604D5E06921F0FB
:105420001001216000E00120A84201DD471B00E0DF
:105430000027A1697A1902EB0900081AA0612078F7
:10544000C00602D42046FFF765FD002608E0D4E937
:1054500001211AF806009047206A401C761C206241
:105460004E45F4DB2078C0060AD52046FFF752FDF2
:1054700006E0D4E9012130209047206A401C2062D8
:10548000381EA7F10107F4DC07E0D4E9012118F880
:1054900005009047206A401C2062281EA5F10105E6
:1054A000F3DC2046FFF74CFD2078000602D50220F1
:1054B000BDE8F0870120FBE711680268006A530528
:1054C00001D508700AE0D30501D5088006E013066F
:1054D00003D5C217C1E9000200E00860012070474F
:1054E00070472DE9FF4F0C461E464FF0FF378BB03B
:1054F000D2E90001DDF860800A908A46C1F30A55BE
:1055000005B93D46002108464FF00000BAF1000FF2
:1055100000F4400005DA00EB80004FF4400101EA9E
:1055200050004FEA9059B9F1010F00DDB9460A98D1
:1055300050EA4A000ED044F61050A5F2FF3545431C
:105540002F14B8F1000F1ED07542291E1EDDC9F1BF
:1055500000021CE0B8F1010F4FF0000001D0302133
:1055600003E0F24305E02154401CB042FBDB30462F
:105570000022002121540B99C1F80880C1E90020C4
:105580000FB0BDE8F08FBD1B6D1CDEE74A4600DAA8
:10559000694206A800F062FB06AB93E8070003AB84
:1055A00083E8070050460A9900F058FC8DE8070090
:1055B000A0F500501F3800900398002D09DD42F23D
:1055C0001F014A46084403A90390684600F0B7FE4D
:1055D00008E0A0F500504A461F3803A9039068462A
:1055E00000F0C1FE8DE807000004000C03D04FF06E
:1055F000FF30410800E01046B8F1000F03D0002250
:10560000009215461EE0751E05D400F075FA303282
:1056100062556D1EF9D5B3460122084302D000221F
:105620007F1C04E02078302801D100227F1E002A50
:10563000099786D01DE0112D07DA00F05DFA3032AF
:1056400062556D1C50EA0102F5D1084302D0009862
:10565000C8B10EE00021681E05E0235C625C635463
:105660002254401E491C8142F7DBAB46A81B401E5A
:105670000990002004F80B000B98099AC0F80880E4
:10568000C0E9002B7CE711264FF0000859E72DE90F
:10569000F04F88460446D21D22F0070191B0D1E9AF
:1056A0000001CDE90A0100F094FF02460B98C00FFB
:1056B00001D02D2007E02068810701D52B2002E0D2
:1056C000202101EAC000032A099001D0072A05DB46
:1056D00003464146204600F055FA0BE1207880064B
:1056E00001D5E06900E00620B8F1650F814606D0DB
:1056F000B8F1660F18D0B8F1670F70D131E0002013
:10570000B9F1110F009001DB112301E009F1010350
:105710000AAA01A90CA8FFF7E4FEDDE90C70002637
:1057200009F10105834647E001204B4600904FF008
:1057300000470AAA01A90CA8FFF7D3FEDDE90DB0C6
:105740000C995D46002610B909F101000D18B9EB5E
:10575000050003D4C0F1FF3609F10105A5EB0900EE
:105760002BE0B9F1010F01DA4FF001090020B9F186
:10577000110F0090484601DD112300E003460AAAFC
:1057800001A90CA8FFF7ADFEDDE90C704D4600261F
:105790008346207800070AD4AB4500DA5D4601A8AD
:1057A000012D04DD411911F8011C302907D04F45A6
:1057B00002DA17F1040F04DA012082460FE06D1EB1
:1057C000EEE7002F02DCED1B3E4403E0781CA8420C
:1057D00000DD7D1CB81B00F1010A4FF00047207866
:1057E000000703D4AA4501DB4FF0FF3A0021B7F1CF
:1057F000004F0DF143088DF8431024D002202B23D5
:10580000002F01DA7F422D230A21021EA0F10100A0
:1058100000DC5FB197FBF1FC97FBF1F201FB1C7C14
:1058200017460CF1300C08F801CDEEE7A8F10100A5
:1058300003702188090501D5452100E06521A0F10B
:10584000010800F8011C09980FA9A1EB0807FF1D2A
:1058500000B10120411901EBEA70A1693844081A2E
:10586000401EA0612078C00602D42046FFF752FBFC
:10587000099828B1D4E901219047206A401C206290
:105880002078C00622D52046FFF744FB1EE0002EFC
:1058900004DBB34502DD01A8805D00E03020D4E9DF
:1058A00001219047206A401C2062761CAAF1010069
:1058B0005FEA000A0AD100F01BF9C0680168405C89
:1058C000D4E901219047206A401C2062281EA5F1DE
:1058D0000105DCDC07E0D4E9012118F8010B904751
:1058E000206A401C2062381EA7F10107F3DC204625
:1058F000FFF726FB032011B043E6000001694A1CB4
:1059000002610878704700B58FB0CDE90131002100
:10591000059105497944CDE9031011466846FFF722
:10592000A7FB0FB000BD0000E5FFFFFF0A6802F80B
:10593000010B0A607047D1E900239A4202D2531C3E
:105940000B601070704700002DE9FF5F15468A4616
:105950000446DFF8AC80F8440027D8E900103E4642
:10596000CDE9001010E03AF816106A4602A800F0DF
:10597000E3F9411C07D02178890603D5E26939187B
:1059800091420DD80744761C2078800602D5E06944
:10599000B84205DDAE42E6DB3AF816000028E2D157
:1059A000A069C01BA0612046FFF7B4FAD8E9001037
:1059B000CDE90010002017E03AF818106A4602A856
:1059C00000F0BAF9B0F1FF3F81460BD000250DF190
:1059D000080B05E0D4E901211BF8050090476D1C78
:1059E0004D45F7D308F10100B0428046E4DB206A60
:1059F000384420622046FFF7A3FABDE8FF9F00006D
:105A00001E2100002DE9F0418046D21D22F0070240
:105A10000025D2E90002F52915A614D0011E72F165
:105A2000000106DA0023D0EB030063EB020211A6AB
:105A300008E0D8F800108B0701D50FA602E049074F
:105A400001D50EA601251146002408F1240704E023
:105A500000F052F830323A55641C50EA0102F7D196
:105A60002B46324621464046BDE8F041FFF7CBBC0D
:105A7000000000002D0000002B00000020000000AE
:105A800030B4002100F1240408E002F00705D20838
:105A9000303542EA4372DB086554491C52EA03057B
:105AA000F3D10468002310A2250708D504F02004D0
:105AB0000C4304D0C46901230CA2641EC46130BC31
:105AC000FFF7A1BC10B5044621461068FFF769FC3A
:105AD00002462046BDE810400023D1E7D21D22F047
